{
  "contractName": "CashPoints",
  "abi": [
    {
      "anonymous": false,
      "inputs": [
        {
          "indexed": false,
          "internalType": "address",
          "name": "cashpoint",
          "type": "address"
        },
        {
          "indexed": false,
          "internalType": "string",
          "name": "name",
          "type": "string"
        },
        {
          "indexed": false,
          "internalType": "int256",
          "name": "latdeg",
          "type": "int256"
        },
        {
          "indexed": false,
          "internalType": "uint256",
          "name": "latmin",
          "type": "uint256"
        },
        {
          "indexed": false,
          "internalType": "uint256",
          "name": "latsec",
          "type": "uint256"
        },
        {
          "indexed": false,
          "internalType": "int256",
          "name": "longdeg",
          "type": "int256"
        },
        {
          "indexed": false,
          "internalType": "uint256",
          "name": "longmin",
          "type": "uint256"
        },
        {
          "indexed": false,
          "internalType": "uint256",
          "name": "longsec",
          "type": "uint256"
        },
        {
          "indexed": false,
          "internalType": "uint256",
          "name": "rate",
          "type": "uint256"
        },
        {
          "indexed": false,
          "internalType": "uint256",
          "name": "endtime",
          "type": "uint256"
        }
      ],
      "name": "CreatedCashPoint",
      "type": "event"
    },
    {
      "constant": true,
      "inputs": [],
      "name": "Count",
      "outputs": [
        {
          "internalType": "uint256",
          "name": "",
          "type": "uint256"
        }
      ],
      "payable": false,
      "stateMutability": "view",
      "type": "function"
    },
    {
      "constant": false,
      "inputs": [
        {
          "internalType": "string",
          "name": "name",
          "type": "string"
        },
        {
          "internalType": "int256",
          "name": "latdeg",
          "type": "int256"
        },
        {
          "internalType": "uint256",
          "name": "latmin",
          "type": "uint256"
        },
        {
          "internalType": "uint256",
          "name": "latsec",
          "type": "uint256"
        },
        {
          "internalType": "int256",
          "name": "longdeg",
          "type": "int256"
        },
        {
          "internalType": "uint256",
          "name": "longmin",
          "type": "uint256"
        },
        {
          "internalType": "uint256",
          "name": "longsec",
          "type": "uint256"
        },
        {
          "internalType": "uint256",
          "name": "phone",
          "type": "uint256"
        },
        {
          "internalType": "uint256",
          "name": "rate",
          "type": "uint256"
        },
        {
          "internalType": "uint256",
          "name": "duration",
          "type": "uint256"
        }
      ],
      "name": "addCashPoint",
      "outputs": [],
      "payable": false,
      "stateMutability": "nonpayable",
      "type": "function"
    }
  ],
  "bytecode": "0x608060405234801561001057600080fd5b506106db806100206000396000f3fe608060405234801561001057600080fd5b50600436106100365760003560e01c806393a8333e1461003b578063accfb37e14610059575b600080fd5b61004361016f565b6040518082815260200191505060405180910390f35b61016d600480360361014081101561007057600080fd5b810190808035906020019064010000000081111561008d57600080fd5b82018360208201111561009f57600080fd5b803590602001918460018302840111640100000000831117156100c157600080fd5b91908080601f016020809104026020016040519081016040528093929190818152602001838380828437600081840152601f19601f820116905080830192505050505050509192919290803590602001909291908035906020019092919080359060200190929190803590602001909291908035906020019092919080359060200190929190803590602001909291908035906020019092919080359060200190929190505050610175565b005b60005481565b600160003373ffffffffffffffffffffffffffffffffffffffff1673ffffffffffffffffffffffffffffffffffffffff16815260200190815260200160002060090154421061028d57600160003373ffffffffffffffffffffffffffffffffffffffff1673ffffffffffffffffffffffffffffffffffffffff1681526020019081526020016000206000808201600061020e9190610598565b6001820160008082016000905560018201600090556002820160009055505060048201600080820160009055600182016000905560028201600090555050600782016000905560088201600090556009820160009055600a820160006101000a81549060ff021916905550506000808154809291906001900391905055505b600160003373ffffffffffffffffffffffffffffffffffffffff1673ffffffffffffffffffffffffffffffffffffffff168152602001908152602001600020600a0160009054906101000a900460ff16156102e757600080fd5b6102ef6105e0565b60405180606001604052808b81526020018a81526020018981525090506103146105e0565b60405180606001604052808981526020018881526020018781525090506000620151808402420190506000600190506040518060e001604052808f8152602001858152602001848152602001888152602001878152602001838152602001821515815250600160003373ffffffffffffffffffffffffffffffffffffffff1673ffffffffffffffffffffffffffffffffffffffff16815260200190815260200160002060008201518160000190805190602001906103d3929190610601565b5060208201518160010160008201518160000155602082015181600101556040820151816002015550506040820151816004016000820151816000015560208201518160010155604082015181600201555050606082015181600701556080820151816008015560a0820151816009015560c082015181600a0160006101000a81548160ff02191690831515021790555090505060008081548092919060010191905055507fd21d31a4e7ab28dfd88bd545728decf07f30feb69b75cba392ff04527b7c505a338f8f8f8f8f8f8f8e8b604051808b73ffffffffffffffffffffffffffffffffffffffff1673ffffffffffffffffffffffffffffffffffffffff168152602001806020018a815260200189815260200188815260200187815260200186815260200185815260200184815260200183815260200182810382528b818151815260200191508051906020019080838360005b8381101561054557808201518184015260208101905061052a565b50505050905090810190601f1680156105725780820380516001836020036101000a031916815260200191505b509b50505050505050505050505060405180910390a15050505050505050505050505050565b50805460018160011615610100020316600290046000825580601f106105be57506105dd565b601f0160209004906000526020600020908101906105dc9190610681565b5b50565b60405180606001604052806000815260200160008152602001600081525090565b828054600181600116156101000203166002900490600052602060002090601f016020900481019282601f1061064257805160ff1916838001178555610670565b82800160010185558215610670579182015b8281111561066f578251825591602001919060010190610654565b5b50905061067d9190610681565b5090565b6106a391905b8082111561069f576000816000905550600101610687565b5090565b9056fea265627a7a7231582059b12edf80411cfd2c09c436598b5e3556543497c7dcb47d59a277bdbeb6d41164736f6c63430005100032",
  "source": "pragma solidity >=0.5.0 <0.6.0;\r\n\r\ncontract CashPoints {\r\nuint public Count;\r\n\r\nstruct Coordinate {\r\n    int _degrees;\r\n    uint _minutes;\r\n    uint _seconds;\r\n}\r\n\r\n\r\nstruct CashPoint {\r\n    string _name; //short Name\r\n    Coordinate _latitude;\r\n    Coordinate _longitude;\r\n    uint _phoneNumber;\r\n    uint rate; //local currency to usd rate\r\n    uint endtime; //when time as cashpoint will expire\r\n    bool isCashPoint;\r\n    \r\n}\r\n\r\nmapping (address=>CashPoint) cashpoints;\r\nevent CreatedCashPoint(address cashpoint, string name, int latdeg, uint latmin, uint latsec,int longdeg, uint longmin, uint longsec, uint rate, uint endtime);\r\n\r\nfunction addCashPoint(string memory name, int latdeg, uint latmin, uint latsec, int longdeg, uint longmin, uint longsec, uint phone, uint rate, uint duration) public{\r\n   \r\n    if(block.timestamp >= cashpoints[msg.sender].endtime)\r\n    {\r\n        delete cashpoints[msg.sender];\r\n        Count--;\r\n    }\r\n    \r\n    require(!cashpoints[msg.sender].isCashPoint);\r\n    Coordinate memory myLat = Coordinate(latdeg, latmin, latsec);\r\n    Coordinate memory myLong = Coordinate(longdeg, longmin, longsec);\r\n    uint endtime = block.timestamp + duration * 1 days;\r\n    bool isCashPoint = true;\r\n\r\n    cashpoints[msg.sender] = CashPoint(name, myLat, myLong, phone, rate, endtime, isCashPoint);\r\n    Count++;\r\n    emit CreatedCashPoint(msg.sender, name, latdeg, latmin, latsec, longdeg, longmin, longsec, rate, endtime);\r\n}\r\n\r\n\r\n}\r\n\r\n",
  "sourcePath": "C:\\Working\\ChikwamaWalletContracts\\contracts\\CashPoints.sol",
  "compiler": {
    "name": "solc",
    "version": "0.5.16+commit.9c3226ce.Emscripten.clang"
  },
  "schemaVersion": "3.2.0",
  "updatedAt": "2020-06-20T19:19:54.910Z",
  "networkType": "ethereum",
  "devdoc": {
    "methods": {}
  },
  "userdoc": {
    "methods": {}
  }
}